:1000000007C1000033C1000031C100002FC1000052
:100010002DC100002BC1000029C1000027C1000034
:1000200025C1000023C1000021C100001FC1000044
:100030001DC100001BC1000019C1000017C1000054
:1000400015C1000013C1000011C100000FC1000064
:100050000DC100000BC1000009C10000F1C4000087
:1000600005C1000060C5000035C50000FFC00000EC
:10007000FDC00000FBC00000F9C00000F7C0000098
:10008000F5C00000F3C00000F1C00000EFC00000A8
:10009000EDC00000EBC00000E9C00000E7C00000B8
:1000A000E5C00000E3C00000E1C00000DFC00000C8
:1000B000DDC00000DBC00000D9C00000D7C00000D8
:1000C000D5C00000D3C00000D1C00000CFC00000E8
:1000D000CDC00000CBC00000C9C00000C7C00000F8
:1000E000C5C000008401870176017A017E01BE014E
:1000F0008B018F01950199019D01A301A701AB011E
:10010000BE01B101B501B90100000A0B02090C0DD5
:100110000E080703040100000000000000000000BA
:1001200000000000000000000000000000000000CF
:10013000000000001211100000000000000000008C
:1001400000000000000000000000000000000000AF
:100150002200250028002B002E003100340002016F
:100160000000050108010B01000021002400270008
:100170002A002D00300033000101000004010701B6
:100180000A0105050505070508080808020202021C
:100190000A0A080804040404010101010101010123
:1001A0000303030303030303040707070C0C0C0CEE
:1001B0000C0C0C0C020202020606060606060606D7
:1001C0000B0B0B0B0B0B0B0B010210202008081064
:1001D00020401020408002010201080402010102B7
:1001E0000408102040808040201008040201800490
:1001F00002018040201008040201080402010102EB
:100200000408102040800102040810204080C90525
:1002100011241FBECFEFD1E2DEBFCDBF00E00CBF87
:1002200012E0A0E0B2E0E2E5FFE000E00BBF02C0B8
:1002300007900D92A035B107D9F724E0A0E5B2E010
:1002400001C01D92A230B207E1F711E0C8E0D1E091
:1002500000E005C021970109802FFE0161D6C7305B
:10026000D10780E00807B1F736D571C6C9CE90E056
:10027000FC01E853FE4F2491FC01EE57FE4F8491A0
:10028000882399F090E0880F991FFC01E859FE4FF0
:10029000A591B491FC01E25BFE4F859194918FB7DB
:1002A000F894EC91E22BEC938FBF0895362F90E0F9
:1002B000FC01E85FFE4F4491FC01E853FE4F24919E
:1002C000FC01EE57FE4F9491992309F46BC044232F
:1002D00009F454C050E0FA013197E231F10508F019
:1002E0004DC08827EE58FF4F8F4F1AC6809180006F
:1002F0008F7707C0809180008F7D03C08091800040
:10030000877F809380003AC084B58F7702C084B520
:100310008F7D84BD33C08091B0008F7703C0809102
:10032000B0008F7D8093B00029C0809190008F77BE
:1003300007C0809190008F7D03C080919000877FDF
:10034000809390001BC08091A0008F7707C08091A0
:10035000A0008F7D03C08091A000877F8093A000C4
:100360000DC0809120018F7707C0809120018F7D83
:1003700003C080912001877F80932001E92FF0E066
:10038000EE0FFF1FE25BFE4FA591B4919FB7F8946B
:10039000311104C08C912095282302C0EC912E2BA2
:1003A0002C939FBF0895CF93DF9360E08CE07EDFB6
:1003B00060E088E07BDFC7E0D0E060E084E076DFEB
:1003C0008091F80390E00C2E02C0959587950A94D1
:1003D000E2F780FF02C061E001C060E088E066DF14
:1003E00061E084E063DF219740F761E08CE0DF911A
:1003F000CF915CCF8CE03BDF87E039DF88E037DFEF
:1004000084E035DF1092F803CEDF60E087E04ECF66
:100410003FB7F8948091570390915803A0915903E6
:10042000B0915A0326B5A89B05C02F3F19F001963D
:10043000A11DB11D3FBFBA2FA92F982F8827820F6A
:10044000911DA11DB11DBC01CD0142E0660F771FBA
:10045000881F991F4A95D1F70895CF92DF92EF92A6
:10046000FF920F931F93CF93DF936C017A018B015F
:10047000C0E0D0E0CE15DF0581F0D8016D918D018F
:10048000D601ED91FC910190F081E02DC601199506
:10049000892B11F02196EECF7E01C701DF91CF911C
:1004A0001F910F91FF90EF90DF90CF9008950895E6
:1004B00080E090E00895FC01538D448D252F30E0BD
:1004C000842F90E0821B930B541710F0CF96089561
:1004D00001970895FC01918D828D981761F0828DAE
:1004E000DF01A80FB11D5D968C91928D9F5F9F7368
:1004F000928F90E008958FEF9FEF0895FC01918D0A
:10050000828D981731F0828DE80FF11D858D90E076
:1005100008958FEF9FEF0895FC01918D228D892F13
:1005200090E0805C9F4F821B91098F7399270895FB
:100530008BE593E0F1DF21E0892B09F420E0822FA5
:100540000895FC01848DDF01A80FB11DA35ABF4F90
:100550002C91848D90E001968F739927848FA689C2
:10056000B7892C93A089B1898C91837080648C9316
:10057000938D848D981306C00288F389E02D8081C5
:100580008F7D80830895EF92FF920F931F93CF93F7
:10059000DF93EC0181E0888F9B8D8C8D981305C0D3
:1005A000E889F989808185FD25C0F62E0B8D10E044
:1005B0000F5F1F4F0F731127E02E8C8DE8120BC0B9
:1005C0000FB607FCFACFE889F989808185FFF5CF5E
:1005D000CE01B7DFF2CF8B8DFE01E80FF11DE35A9C
:1005E000FF4FF0829FB7F8940B8FEA89FB898081D7
:1005F00080620AC09FB7F894EE89FF896083E8891A
:10060000F98980818370806480839FBF81E090E05E
:10061000DF91CF911F910F91FF90EF900895CF93AD
:10062000DF93EC01888D8823C1F0EA89FB89808102
:1006300085FD05C0A889B9898C9186FD0EC00FB6CD
:1006400007FCF5CF808185FFF2CFA889B9898C910D
:1006500085FFEDCFCE0175DFE8CFDF91CF91089513
:10066000FC018081823079F018F4813031F00895F6
:10067000833079F0843099F0089570E070938900A8
:1006800060938800089570E070939D0060939C00D3
:10069000089570E07093A9006093A800089570E039
:1006A00070939900609398000895FC0180818230D6
:1006B00049F018F4813079F00895833031F08430B6
:1006C00039F0089524E031E008C027E035E005C0A6
:1006D00026E030E002C023E032E06230A9F064306E
:1006E00029F16130B1F581E090E0AC0101C0440F27
:1006F0003A95EAF73091F803432B01C0880F2A9509
:10070000EAF78095842322C081E090E0AC0101C02B
:10071000440F3A95EAF7342F30954091F80334238B
:1007200001C0880F2A95EAF7832B10C041E050E002
:10073000CA0101C0880F3A95EAF701C0440F2A9513
:10074000EAF7842B80959091F80389238093F8032E
:100750002ACE0895009761F0FC0101900020E9F78E
:100760003197AF01481B590BBC018BE593E075CE67
:1007700080E090E008958F929F92AF92BF920F9386
:100780001F93CF93DF93CDB7DEB7A1970FB6F89441
:10079000DEBF0FBECDBF19A2423008F44AE08E0181
:1007A0000F5D1F4F842E912CA12CB12CA50194011B
:1007B00095D3E62FB901CA0101501109EA3014F4AA
:1007C000E05D01C0E95CD801EC93232B242B252BA1
:1007D00069F7C801BFDFA1960FB6F894DEBF0FBE60
:1007E000CDBFDF91CF911F910F91BF90AF909F90A0
:1007F0008F900895CF92DF92EF92FF92CF93DF9385
:100800006115710529F4682F8BE593E0BCDE20C0EB
:100810006C01990FEE08FF086A307105A9F4F7FE24
:1008200011C06DE28BE593E0AEDEEC016627772721
:10083000CB016C197D098E099F094AE09CDFC80F26
:10084000D91F07C04AE001C0462FC701B60193DF98
:10085000EC0182E192E07EDF8C0F9D1FDF91CF9152
:10086000FF90EF90DF90CF900895CF93DF9372DFEA
:10087000EC0182E192E06EDF8C0F9D1FDF91CF9142
:10088000089556D3FF920F931F93CF93DF938BE579
:1008900093E042DE892B09F49AC08BE593E01ADEDF
:1008A0002091500330915103F901E05BFD4F8A30F4
:1008B00009F085C0108285E192E0D7DF80E592E003
:1008C000D4DF6AE370E080E592E036D3009709F464
:1008D00059C0EC01199280E592E0DBD28C01CE0187
:1008E000D8D2EC0181E292E035DF6AE070E0C80125
:1008F00081DF82E392E02EDF6AE070E0CE017ADFF2
:1009000017FF05C0119501951109F12C02C0FF24B4
:10091000F394602F80E094E0A3DE602F8EEF93E0ED
:100920009FDEF11002C062E001C061E080E094E06F
:10093000BCDEF11002C062E001C061E08EEF93E026
:10094000B4DED7FF05C0D195C195D10910E001C033
:1009500011E06C2F8AEF93E083DE6C2F8CEF93E035
:100960007FDE111102C062E001C061E08AEF93E016
:100970009CDE111102C062E001C061E08CEF93E0E7
:1009800094DE18C084E492E070DF60E170E080E003
:1009900090E030DF8091000060E170E0082E000CF4
:1009A000990B28DF609100008BE593E0ECDD82E19C
:1009B00092E0D0DE109251031092500368CF8083F2
:1009C0002F5F3F4F309351032093500360CFDF914F
:1009D000CF911F910F91FF900895AADD811125C03D
:1009E00080E090E0892B41F080E090E0892B21F0BD
:1009F0000E94000081111BC080E090E0892B41F033
:100A000080E090E0892B21F00E940000811112C04B
:100A100080E090E0892B99F080E090E0892B79F0DC
:100A20000E940000811109C008952CDFD9CF0E94D7
:100A30000000E2CF0E940000EBCF0C94000008956C
:100A40001F920F920FB60F9211242F933F938F9303
:100A50009F93AF93BF938091530390915403A091C0
:100A60005503B09156033091520323E0230F2D37E5
:100A700020F40196A11DB11D05C026E8230F0296A2
:100A8000A11DB11D209352038093530390935403EF
:100A9000A0935503B0935603809157039091580348
:100AA000A0915903B0915A030196A11DB11D8093E5
:100AB000570390935803A0935903B0935A03BF91DF
:100AC000AF919F918F913F912F910F900FBE0F90FB
:100AD0001F9018951F920F920FB60F9211240BB60C
:100AE0000F922F933F934F935F936F937F938F93C7
:100AF0009F93AF93BF93EF93FF938BE593E021DD3B
:100B0000FF91EF91BF91AF919F918F917F916F91E5
:100B10005F914F913F912F910F900BBE0F900FBEA1
:100B20000F901F9018951F920F920FB60F921124DD
:100B30000BB60F922F938F939F93EF93FF93E091B8
:100B40006B03F0916C038081E0917103F09172036B
:100B500082FD12C09081809174038F5F8F7320910A
:100B60007503821751F0E0917403F0E0E55AFC4FF1
:100B7000958F8093740301C08081FF91EF919F91C5
:100B80008F912F910F900BBE0F900FBE0F901F9063
:100B90001895EF92FF920F931F93CF93DF93EBE59E
:100BA000F3E01382128288EE93E0A0E0B0E0848349
:100BB0009583A683B78384E092E09183808385EC5C
:100BC00090E09587848784EC90E09787868780EC17
:100BD00090E0918B808B81EC90E0938B828B82EC08
:100BE00090E0958B848B86EC90E0978B868B118EB2
:100BF000128E138E148E1092F903E0E0F4E081E07F
:100C00008083C2E0C183F6DB8091F803837F809309
:100C1000F803C9DBE0E8F0E0808181688083DAE0F6
:100C2000D093810010928900109288008BE01FDB26
:100C3000EEEFF3E0C083C183DDDB8091F8038D7EAE
:100C40008093F803B0DB00E910E0F801808189604F
:100C5000808381E9E82EF12CF701D08310929D006A
:100C600010929C0083E003DBECEFF3E083E08083F1
:100C7000C183C0DB8091F8038F758093F80393DB09
:100C8000E0EAF0E0808181688083D093A100109237
:100C9000A9001092A80086E0EADAEAEFF3E084E027
:100CA0008083C183A7DB8091F8038E7B8093F80358
:100CB0007ADBF801808181688083F701D08310920C
:100CC00099001092980085E0DF91CF911F910F91CC
:100CD000FF90EF90CCCA789484B5826084BD84B5CF
:100CE000816084BD85B5826085BD85B5816085BD27
:100CF00080916E00816080936E00109281008091DF
:100D00008100826080938100809181008160809366
:100D10008100809180008160809380008091B1008B
:100D200084608093B1008091B00081608093B000B6
:100D30008091910082608093910080919100816008
:100D400080939100809190008160809390008091C9
:100D5000A10082608093A1008091A10081608093B6
:100D6000A1008091A00081608093A000809121016A
:100D70008260809321018091210181608093210113
:100D80008091200181608093200180917A008460AD
:100D900080937A0080917A00826080937A008091BB
:100DA0007A00816080937A0080917A0080688093D5
:100DB0007A001092C100E0916B03F0916C0382E025
:100DC0008083E0916703F09168031082E0916903EA
:100DD000F0916A0380E1808310927303E0916F03C6
:100DE000F091700386E08083E0916D03F0916E03D3
:100DF000808180618083E0916D03F0916E0380813A
:100E000088608083E0916D03F0916E03808180683B
:100E10008083E0916D03F0916E0380818F7D8083EC
:100E20008CE492E022DD64E080E094E03EDC64E06B
:100E30008AEF93E03ADC64E08CEF93E036DC64E028
:100E40008EEF93E032DCE4DA6B017C0184E6882EDD
:100E5000912CA12CB12CDCDADC01CB018C199D0981
:100E6000AE09BF09883E9340A105B105A0F321E07A
:100E7000821A9108A108B10888EEC80E83E0D81E36
:100E8000E11CF11C81149104A104B10421F7A5DD3A
:100E9000DACFFC0188279927E89421912032E9F3E1
:100EA000293010F02E30C8F32B3239F02D3231F4C6
:100EB000689403C00BD0820F911D219120532A30DA
:100EC000C8F31EF4909581959F4F08957AE0979FFF
:100ED000902D879F802D910D11240895A1E21A2E47
:100EE000AA1BBB1BFD010DC0AA1FBB1FEE1FFF1FCE
:100EF000A217B307E407F50720F0A21BB30BE40B1E
:100F0000F50B661F771F881F991F1A9469F7609564
:100F10007095809590959B01AC01BD01CF0108951E
:100F2000EE0FFF1F881F8BBF0790F691E02D1994DD
:100F300081E090E0F8940BC0FC018191861721F0CC
:100F40008823D9F7992708953197CF010895F89408
:020F5000FFCFD1
:100F520000000000C3022D025B020F038C026A0232
:100F62007E020D0A0070726F63657373696E673A71
:100F72000073657474696E67206C65667420746FA3
:100F8200200073657474696E6720726967687420E3
:100F9200746F20005365702069733A004F4B000054
:00000001FF
